{
  "contractName": "record",
  "abi": [
    {
      "constant": false,
      "inputs": [
        {
          "name": "file_id",
          "type": "uint256"
        },
        {
          "name": "_file_hash",
          "type": "string"
        }
      ],
      "name": "set",
      "outputs": [],
      "payable": false,
      "stateMutability": "nonpayable",
      "type": "function",
      "signature": "0x64371977"
    },
    {
      "constant": true,
      "inputs": [
        {
          "name": "file_id",
          "type": "uint256"
        }
      ],
      "name": "get",
      "outputs": [
        {
          "name": "_file_hash",
          "type": "string"
        }
      ],
      "payable": false,
      "stateMutability": "view",
      "type": "function",
      "signature": "0x9507d39a"
    }
  ],
  "bytecode": "0x608060405234801561001057600080fd5b5061049d806100206000396000f3fe60806040526004361061004c576000357c0100000000000000000000000000000000000000000000000000000000900463ffffffff16806364371977146100515780639507d39a14610123575b600080fd5b34801561005d57600080fd5b506101216004803603604081101561007457600080fd5b81019080803590602001909291908035906020019064010000000081111561009b57600080fd5b8201836020820111156100ad57600080fd5b803590602001918460018302840111640100000000831117156100cf57600080fd5b91908080601f016020809104026020016040519081016040528093929190818152602001838380828437600081840152601f19601f8201169050808301925050505050505091929192905050506101d7565b005b34801561012f57600080fd5b5061015c6004803603602081101561014657600080fd5b8101908080359060200190929190505050610248565b6040518080602001828103825283818151815260200191508051906020019080838360005b8381101561019c578082015181840152602081019050610181565b50505050905090810190601f1680156101c95780820380516001836020036101000a031916815260200191505b509250505060405180910390f35b80600060010190805190602001906101f092919061032b565b5081600080018190555060006002600084815260200190815260200160002060008201548160000155600182018160010190805460018160011615610100020316600290046102409291906103ab565b509050505050565b6060610252610432565b6002600084815260200190815260200160002060408051908101604052908160008201548152602001600182018054600181600116156101000203166002900480601f0160208091040260200160405190810160405280929190818152602001828054600181600116156101000203166002900480156103135780601f106102e857610100808354040283529160200191610313565b820191906000526020600020905b8154815290600101906020018083116102f657829003601f168201915b50505050508152505090508060200151915050919050565b828054600181600116156101000203166002900490600052602060002090601f016020900481019282601f1061036c57805160ff191683800117855561039a565b8280016001018555821561039a579182015b8281111561039957825182559160200191906001019061037e565b5b5090506103a7919061044c565b5090565b828054600181600116156101000203166002900490600052602060002090601f016020900481019282601f106103e45780548555610421565b8280016001018555821561042157600052602060002091601f016020900482015b82811115610420578254825591600101919060010190610405565b5b50905061042e919061044c565b5090565b604080519081016040528060008152602001606081525090565b61046e91905b8082111561046a576000816000905550600101610452565b5090565b9056fea165627a7a723058204797f6afb3f89c6be07d15b2c4fa4ce62bd06289ba04165996d8f57603d06cfe0029",
  "source": "pragma solidity ^0.5.0;\r\ncontract record{\r\n    struct file{\r\n        uint id;\r\n        string hash;\r\n    }\r\n    file f;  \r\n\r\n\tmapping(uint => file) fileList;\r\n\r\n \r\n\tfunction set(uint file_id,string memory _file_hash)public{\r\n\r\n\t\t f.hash=_file_hash;\r\n         f.id=file_id;\r\n         \r\n        fileList[file_id] = f;\r\n         \r\n         }\r\n\t\r\n\r\n \r\n\t function get(uint file_id) public view returns (string memory _file_hash){\r\n         \r\n         file memory f = fileList[file_id];\r\n         \r\n     return(f.hash);\r\n    \r\n     }\r\n}",
  "sourcePath": "C:/Users/uditm/Documents/Projects/Medblock/medblock/src/contracts/record.sol",
  "compiler": {
    "name": "solc",
    "version": "0.5.0+commit.1d4f565a.Emscripten.clang"
  },
  "schemaVersion": "3.0.1",
  "updatedAt": "2022-08-11T20:19:13.233Z",
  "devdoc": {
    "methods": {}
  },
  "userdoc": {
    "methods": {}
  }
}